:100000006F00302400000000F2010000F401000045
:1000100000000000000000000000000000000000E0
:1000200000000000000000000000000000000000D0
:10003000400A000000000000400A0000000000002C
:10004000400A0000400A0000400A0000400A000088
:10005000400A0000400A0000400A0000400A000078
:10006000400A0000400A0000400A0000400A000068
:10007000400A0000400A0000400A0000400A000058
:1000800084050000400A0000400A0000400A000009
:10009000400A0000400A0000AE0500000000000019
:1000A000511126C022C206C4828282441244A24058
:1000B000310182802A86014593F6150091C232955E
:1000C00085810606F5F9828000000000634E050276
:1000D00063C305042E86AA857D5515C285466378BF
:1000E000B6006356C00006068606E36CB6FE014500
:1000F00063E4C500918D558D85820582F5FA828075
:100100008682C93F2E8582823305A04063D70500D1
:10011000B305B040C1B7B305B0408682653F330533
:10012000A0408282868263C70500634905005D376F
:100130002E858282B305B040E35B05FE3305A04007
:10014000513F3305B040828200003D432A876373EC
:10015000C3029377F700BDEFADE5937606FF3D8AC6
:10016000BA960CC34CC30CC74CC74107E36BD7FE10
:1001700011E28280B306C3408A0697020000969679
:100180006780A6002307B700A306B7002306B700C1
:10019000A305B7002305B700A304B7002304B700E5
:1001A000A303B7002303B700A302B7002302B700DD
:1001B000A301B7002301B700A300B7002300B700D5
:1001C000828093F5F50F93968500D58D9396050162
:1001D000D58D61B793962700970200009696868288
:1001E000E78086FA9680C1171D8F3E96E374C3F8A8
:1001F000A5B701A0B707EFBE37E700E09387070870
:100200003CC701A0EFF2DFE95D71614681456800FE
:100210002D3F1306C0028145481002C002C202C42D
:100220002D37854513055023EF00F04E85450545D4
:10023000EF00904CA14741447C808A858D4737155B
:1002400001403EC222C4EF0070303715014019470B
:100250008A8513050580788002C4EF00302F8A85D7
:10026000371501406080EF00702E372401400547AC
:100270008D473AC86C0037070E00130504403ACC8E
:100280002300F10202C602CA02CEEF0090069D468C
:100290000546894513050440EF0070109D46094648
:1002A000854513050440EF00900F9D460D4681459E
:1002B00013050440EF00B00EB7040240138584001C
:1002C000EF0090198D473ED8930700083EDC930756
:1002D00000101307C4443EDE930700403AD2BEC06C
:1002E00037070020930700021307C7031385840014
:1002F000BEC24C1089673AD4BEC402D602DA82C6A6
:10030000EF00B01E138584008545EF0090218545E0
:1003100013050440EF00D003854513050440EF00AA
:10032000300213050440EF00D003930404402685F7
:10033000EF00D0036DFD1305044037240140EF00AA
:100340007003130404402285EF0070036DFD6161AA
:10035000A9BBEFF2FFD431118545054502C402C6A1
:100360002318010002C002C2EF00D03CBD473EC4CA
:10037000BD679387F7A52C00370500403EC6EF0008
:10038000503D854537050040EF00F04E130700044F
:10039000B7E700E023A2E72805468545370500407A
:1003A000EF009049930760127C8089475C810A8541
:1003B00085473EC2EF00F02213052003EF0070686E
:1003C000854537050040EF0050445101F9B9EFF27F
:1003D0003FCDAA840565130141FD2E8413050582D6
:1003E000854532C002C802CA02CC02C202C423162A
:1003F000010002CE02D002D202D4EF00D0319147E8
:10040000FC8037150140E1473ECC0C088D471305B1
:1004100005403ECAEF0090136082373401404C0023
:10042000130504C064842315010023130100EF00A9
:1004300050320246C167938707066C08130504C053
:100440003ECE2311C10223120102EF0070351305C5
:1004500004C0A145EF001041130504C08545EF001D
:10046000D03E130504C08545EF00B03B854513051C
:1004700004C0EF0090391301C10205B9EFF25FC269
:10048000AA8537350140130505C0EF00903E31B90C
:10049000EFF21FC19307F5FF93F7F70F214763783A
:1004A000F7029307A00563E6A70293175500898F0B
:1004B0008A073E95930540060E0509399307803E4D
:1004C0006314F5001305703E42054181F9BE0145F4
:1004D000E9BF13054006D1BFEFF29FBC11651301C0
:1004E000C1FD85451305150202C402C602C802CA31
:1004F00002CC02CE02D002C002C2EF00D0213714DB
:100500000140930700047C848D44E1472C001305CF
:10051000044026C63EC8EF007003930700027C84A7
:100520002C0091471305044026C63EC8EF00100278
:10053000F16737440140938707203ECA4C08B7074C
:100540000C00130504803ECE02CC23100102EF0004
:10055000903505469305505213050480EF00D042B4
:10056000930700127C800A8585473EC22301010063
:10057000EF003007854513050480EF00903F13011D
:10058000410225B6711122C03744014093055052F3
:1005900013050480EF00B04219C5930550521305AE
:1005A0000480EF0090450244110173002030711166
:1005B00085453705004022C0EF00B02C3DCD1387A4
:1005C000C182183305469387C1826367E602B4335C
:1005D0006399C606B6A319EFB70600209386960363
:1005E000982205071377F70F98A2A54663F4E60053
:1005F000054798A30547D8A39C23A1EB3704002007
:10060000130484031C201547850793F7F70F1CA0DC
:100610006370F702A14537150140EF00E07A133609
:100620001500A14537150140EF00A07A2300040012
:10063000854537050040EF00502602441101730044
:10064000203013070010BAA375B70146A14537152E
:100650000140EF000078E9BFEFF29FA402251307E5
:10066000D03F1D719307F4FFC207C1836376F70083
:100670001305C0F9256115BC89651305F03F938505
:100680000571018D053CA285B13489659385C5A7A7
:10069000AA84130680052800EF1000313800814736
:1006A000D545322393861700636E96020353670085
:1006B00063EA640298108A078A06BA97BA96039486
:1006C00087FA039586FAB30596401AC2018D32C0A7
:1006D000D53202461243B3056640CD3A2295420513
:1006E000418549BF1107B687E39DB6FA51B7EFF2CE
:1006F0003F9B0545E525F92CEF00703121369139F6
:10070000E13B01469305F0021305703EC931938722
:10071000C18223A00700238207001384C182B7048B
:1007200000201C300547094693968701E1866383C4
:10073000E71089CAE39DC7FE0546A145371501406C
:10074000492DC5B71C206396E70018B023010400AB
:10075000C9BF5C20E397E7FC3C2023020400A1C74B
:10076000E391E7FC9387C403EA23EF1020103727B7
:100770000000832547ADEF00703037270000832548
:1007800087ADEF005060EF1000094205B707002069
:100790009387C7034181CAA79307D01563E9A702CE
:1007A00089471CB0BDBF372501408545130505406D
:1007B000D92E0945492375DD094569239387C4036B
:1007C0009A23FAA3BA239AA7DA23BAA799BF138563
:1007D000C4035935B707002042051387C703418179
:1007E0006AA793070005E3EDA7FA9386C4031306EF
:1007F000A7FD9387C403EE3BF917AEBFE31DF6FEDA
:1008000032270145510793171600B2978E07B2970A
:10081000A18393F7F70F231FF7FEBE2A89063E95A3
:1008200042054181E39BE6FE05811375F50F8D318D
:10083000B131C5BD5820E316F7EE3820230204007D
:1008400059CFE310F7EE9387C403EA23EF100002B9
:1008500037270000832547ADEF00502237270000DF
:10086000832587ADEF003052EF00F07AB707002004
:1008700042051387C70341814AA79307D015E3F1C7
:10088000A7F21385C403C93BB707002042051387AD
:10089000C70341816AA793070005E3E3A7F09386A6
:1008A000C4031306A7FD9387C403EE3BF917AEBF3D
:1008B000E39DC7FE32270145510793171600B297F3
:1008C0008E07B297A18393F7F70F231FF7FEBE2A77
:1008D00089063E9542054181E39BE6FEB1B7372587
:1008E0000140854513050540792C0945A92175DD91
:1008F000E1B5EFF2EFFA371402401C403707FFF87A
:10090000414593E717001CC05C40F98F5CC01C4058
:100910003707F7FE7D17F98F1CC01C403707FCFF17
:100920007D17F98F1CC05C4041777D17F98F5CC043
:10093000B7079F001CC439231C4C93E707021CCC4B
:10094000B717014003A70740938607401377F7F0D6
:1009500023A0E74003A707401367070823A0E74049
:1009600089479CCAB7F7FF1F03C5477D9307F00F60
:100970006304F5007D89F921B72702409843C176C9
:10098000FD16719B98C398431367170098C3B71758
:100990000240D843D8C3D843758FD8C3D843B706CD
:1009A0000001D8C39843558F98C3984393166700A6
:1009B000E3DD06FED843B7160240719BD8C3D84387
:1009C00013672700D8C32147DC42B18BE39EE7FEC3
:1009D0006FF0AFEDEFF2CFEC371702405C43370416
:1009E00000209146B18B130404016385D700A14612
:1009F0006382D704B7376E01938707601CC0B716B0
:100A00000240DC420840918313F7F700B70700204B
:100A100093870700BA978C23DC4293F5F50F93F781
:100A200007083357B50081E7EFF0CFEA2A8718C0EF
:100A30006FF0AFE75C43B777DC02938707C07DBFF9
:100A400001A097010020938161DF138181FC1305D0
:100A5000000A97F5FF1F9385E55A17F6FF1F130647
:100A6000665A63FAC5008322050023A055001105CC
:100A70009105E3EAC5FE171500001305652297F5F9
:100A8000FF1F9385255817F6FF1F1306265B63FA91
:100A9000C5008322050023A0550011059105E3EA56
:100AA000C5FE17F5FF1F130565599385018463770C
:100AB000B500232005001105E36DB5FEB722000047
:100AC00093820288739002308D427390428097F235
:100AD000FFFF9382225393E2320073905230EFF083
:100AE0005FE1970200009382C2C0739012347300DA
:100AF00020305C413707F1FF1307F7EF7D8FDC41B2
:100B00009441A207D58FD98F5CC11C4537F7F1FFFF
:100B10001307D77FD4457D8F9C49D58F9445860692
:100B2000D58FD98F1CC55C55370710FF7D177D8F7A
:100B3000DC29FD1793F7F70FD207D98F5CD5828098
:100B40001C4589C593E717001CC58280F99BEDBF42
:100B50001C4589C593E707101CC5828093F7F7EF02
:100B6000E5BF1C4593E787001CC5828008450D81C1
:100B7000058982801C4593E747001CC58280084593
:100B80000981058982801C4591C537075000D98F9E
:100B90001CC582803707B0FF7D17F98FD5BFA547E9
:100BA00063F8B704138765FF931717008322C50006
:100BB000BA971D433313F3001343F3FF337353000A
:100BC000B397F600B3E767005CC5994763E3C704D2
:100BD0007D16931726003E965859FD47B397C700D8
:100BE00093C7F7FFF98FB395C500DD8D4CD982808F
:100BF0009397150003230501AE971D473317F700A0
:100C00001347F7FF33776700B397F6005D8F18C976
:100C10006DBFB14763E2C7026516931726003E9683
:100C20001859FD47B397C70093C7F7FFF98FB395DE
:100C3000C500DD8D0CD982804D1613172600545542
:100C40003A96FD47B397C70093C7F7FFF58FB39563
:100C5000C500DD8D4CD582801C4141677917F98F25
:100C60001CC1232005002322050023240500B7070B
:100C7000024023260500138787006317E500D84349
:100C80001367F700D8C382801387C7016316E50096
:100C9000D8431367070FFDB7138707036318E500F1
:100CA000D8438566938606F0558FE9BF13874704BE
:100CB0006315E500D843BD66C5BF13878705631676
:100CC000E500D843B7060F00C5B71387C7066316FC
:100CD000E500D843B706F000C1BF13870708E31447
:100CE000E5FAD843B706000FC1B71841E177BD0751
:100CF00094517D8F9C45D58F9449D58FD449D58FFC
:100D0000944DD58FD44DD58FD451D58F9455D58F43
:100D1000D98F1CC1DC455CC19C411CC5DC415CC554
:100D200082801C4189C593E717001CC182804167FE
:100D30007917F98FDDBFB70702409C437D8D3335AE
:100D4000A0008280B7070240C8C38280944593F711
:100D5000060193F2F60081C7DC41B3E2F20083D3CF
:100D6000050093F7F30FA5C303230500611122C209
:100D700026C081471304800293048004054733167C
:100D8000F70033F7C3006312E602939527003D474F
:100D90003317B7001347F7FF33736700B395B200FB
:100DA00033E36500639D860050C985072147E397BB
:100DB000E7FC124423206500824421018280E396EF
:100DC00096FE10C9DDB7828048456D8D3335A00091
:100DD000828019C20CC982804CC9828023ACA18256
:100DE000828083A68183854718216390F6021C3197
:100DF000639CD7023C219A0793E707F8B7E600E027
:100E000093F7F70FBA962380F6408546935757001D
:100E10003397E600544189CE938707048A07B7E6E3
:100E200000E0B69798C38280EDF33C219A07F9B7AA
:100E300093870706B7E600E08A07B69798C30F10B6
:100E400000008280371702401C430E0593F777F0AD
:100E50005D8D08C38280EFF2AFA4371702405C4378
:100E600091462A84B18B6385D700A1466380D70859
:100E7000B7376E01938707601CC0B7160240DC428B
:100E8000918313F7F700B707002093878702BA977B
:100E90008C23DC42184093F5F50F93F70708335580
:100EA000B70081E73A85EFF0EFA248C008C448C414
:100EB000B7170240DC438D46AD83FD8B13D7370057
:100EC0008A07F18BD98F13F6370113F7370063F4D4
:100ED000C600138747FFB707002093874701BA97DB
:100EE0008C23EFF02F9F08C86FF02F9C5C43B777DF
:100EF000DC02938707C049B799C5371702405C4B9E
:100F00005D8D48CB8280B7170240D84B1345F5FF63
:100F1000798DC8CB828099C5371702401C4F5D8DF3
:100F200008CF8280B7170240984F1345F5FF798D9F
:100F300088CF828099C5371702405C4F5D8D48CFBE
:100F40008280B7170240D84F1345F5FF798DC8CF7F
:100F500082801E2137370140130707C0C207C183B3
:100F60006306E500370700406316E500BA2193F7F2
:100F7000F7F8D98FFA2193F7F7CFC207C183D98F3A
:100F80001EA1DE215EB59E211EB5B73701409387B5
:100F900007C06314F5009C251EB985475EA98280B1
:100FA0001E31922103D32500C207C183F99BC207DA
:100FB000C1831EB11E3156211A2DC207C1834207BB
:100FC00041831377C7F8518F9225F59BC20633668C
:100FD0006600D18F37360140130606C0C182631008
:100FE000C502B225DD9B03D3E500D18FD221ED9B55
:100FF00093F6F6CFD18FD22533666600D18E56A1F7
:101000001AADFA2158D91EB182801E2189C593E7F5
:1010100017001EA18280C207C183F99BC207C1834A
:10102000CDBF8357450491C52167D98F2312F5049D
:101030008280C607C583DDBF5E2501C6DD8D4EA556
:10104000828093C5F5FFFD8DDDBF1E2189C593E725
:1010500007081EA18280C207C18393F7F7F7C20772
:10106000C183C5BF1E2DC207C183DD9BDD8D0EADC3
:1010700082804CD9828093C5F5FFC205C1810EA93B
:1010800082801E294A25ED8F4205418189C76D8DD9
:101090003335A00082800145828093C5F5FFC205EB
:1010A000C1810EA98280EFE2BFFF1629F577FD17F7
:1010B000F58FF621DA252111D58F1EA95625FD774A
:1010C0009387379FF58FD6212A842EC0D58F9625FA
:1010D000D58FB625D58F5EA55E29C207C18393F74C
:1010E000F7CF5D8F5AA94800BD33B74701409387BA
:1010F000078082456312F406C2475A2413951700ED
:101100003E9542070E0541873E958C416358070482
:101110008605EFE03FFC930540062AC0EFE09FFB09
:10112000824793144500930540063E85EFE05FFD3E
:101130005E24C207C18763D507020E0593054006EA
:1011400013052503EFE01FF91D89C98CC204C18076
:1011500006A461016FE07FF5B24745B78A0555BF28
:1011600012059305400613052503EFE0BFF63D8900
:10117000E9BF91C55E250967D98F5EA582805A2592
:10118000F977FD17F98FD5BF13F7F50F854715834D
:10119000B395B7006319F7009307C500984301CED4
:1011A000D98D8CC38280894693074501E318D7FE09
:1011B00093070501E5B793C5F5FFF98DDDB713F783
:1011C000F50F85461583B397B6006311D7025A25EC
:1011D000F98F1A2101454207418381CB0545A18141
:1011E000B315B5006D8F3335E000828089466314F6
:1011F000D7001A29F1BF5A29E1BFA1818547B397CA
:10120000B70093C7F7FFC207C1831EA18280EFE238
:101210003FE9B707002003A50701B7157A009385BA
:101220000520EFE03FEB1375F50F238FA182931795
:101230005500898F8A073E950E05239EA1826FE097
:10124000DFE6EFE2FFE537F400E05C40AA85F99BBA
:101250005CC003D5C183EFE0FFE508C82324040088
:101260001C4093E717001CC0B7F700E0D843058B7C
:1012700075DF9843799B98C36FE03FE31301C1FD8D
:101280009356750126CC131695009354F50106D09C
:1012900022CE93F6F60F2582A682638B0610930763
:1012A000F00F638CF6100E06B70700045D8E938670
:1012B00016F80144814393D775011393950093F772
:1012C000F70F13539300FD81E5C31307F00F6386F7
:1012D000E702938717F80E03370700049D8E3363E8
:1012E000E30081475D8C170500001305657F0A0444
:1012F0002A940040AD8C22950285938616F06314E3
:10130000030C89475D8C17150000130565810A04DD
:101310002A9403230400AD8C1A9502858144930519
:10132000F00FB707400013959700825072449397CF
:1013300075012581FE045D8D458DE2441301410256
:1013400082809305F00F8147F9BF1A86AE82BE8373
:1013500089476384F3228D47E382F3FC85476384E6
:10136000F30C9385F60793F412006356B018937745
:10137000760099C79377F60011456383A70011069D
:101380009317460063D80700B70700F8FD177D8E56
:10139000938506089307E00FE3C5B7FA9317660035
:1013A000A58393F5F50F41B763180304854799BFEB
:1013B00015E2114481468543FDBD01EA21449306AF
:1013C000F00F8943CDBD8D4731BF31449306F00FF7
:1013D0008D43D5B532852EC432C026C2B92B024604
:1013E0009307B5FF9306A0F83316F600898E0144E3
:1013F00081439242A245C1B51A8536CA16C832C683
:101400001EC42EC21AC0152BD24602439307B5FF45
:10141000AA963313F3009386660781479245A24349
:101420003246C242C1B593F4120081458147E5BD01
:10143000C16713175300FD17F98F3ACA3EC2135400
:101440000701637D660E3285A28536C632C4EFE0A1
:101450007FC892452AC0EFE0FFC52246B246AA8760
:101460003283FD160146A2851A8536C83EC632C4AF
:10147000EFE01FC92246B2474205518DC246637F45
:10148000F500524782453A951386F5FF6362E50EF3
:101490006370F50E1386E5FF32C03A95B307F54049
:1014A0003E85A28536C83EC6EFE0DFC292452AC41B
:1014B000EFE05FC0B2472AC2A2853E85EFE05FC47D
:1014C000124642052243C246637CC5005247930739
:1014D000F3FF3A95636CE508637AC50879133A958A
:1014E00082473306C5403336C000C207B3E7670002
:1014F0005D8EA682BDB505433303B34091C56D45EE
:1015000081458147E34165E29386E609B316D6003B
:10151000B35766003336D000D18F93F6770099C663
:1015200093F6F70011466383C6009107139757009F
:10153000634207049A07A5838145F5B31353160048
:101540001A85A28536C832C61AC4EFE0BFB89245E4
:101550002AC0EFE03FB63246AA87C2467E064182E5
:10156000224311B7AE82BE830146DDB33E838DBFF9
:1015700032C02DB7854581477DB393F412009305A2
:10158000F00F81474DB3011122CC1354750126CAC7
:1015900006CE931495001374F40FA5809356F501AD
:1015A0004DCC9307F00F630CF40CB70700048E04C6
:1015B000DD8C130414F88147014613D57501139788
:1015C00095001375F50F2583FD814DC51303F00FAD
:1015D000630D65020E07130515F837030004336722
:1015E00067002A9481431305140033C3B6002AC050
:1015F0003D459A826362F5101705000013054556B4
:101600008A07AA979C433E9502851304F40F61EB69
:1016100093E727008943C1BF01431307F00FB707C2
:101620004000F2406244A6075E07A5831315F3014C
:10163000D98FD2445D8D05618280AE82BA841E86C8
:1016400089476306F60A8D47E308F6FC854716834B
:10165000631EF61A01478147E9B7B5E013D5750156
:10166000139795001375F50F91470144054625839F
:10167000FD8129FD19EB93E717008543ADB79DE880
:10168000A1471304F00F09460DBF3A8532C83EC684
:101690002EC436C23AC0552402471303B5FF098C45
:1016A000331767001304A4F881439246A245B2475A
:1016B000424615BFB1471304F00F0D46FDBD268508
:1016C0002EC236C09D2C9307B5FF1304A0F8B39427
:1016D000F400098C8147014682469245F9BD93E7A3
:1016E00037008D4309B78947B682E31EF6F41683A7
:1016F0001307F00F814735B7C167FD17B3F3F40047
:10170000F98FC18041831E85BE85EFE0BF9AAA8212
:10171000BA851E85EFE01F9AAA83BE852685EFE075
:101720007F99AA87BA852685EFE0DF9813D7020153
:10173000BE93BA9363F4F300C1673E95C167FD178A
:10174000B3F4F300C204B3F2F200A69293946200E1
:1017500093D30301B334900093D2A201AA93B3E2CE
:10176000540093946300B3E454009397440063D708
:101770000700024493D714008588DD8C1307F40713
:10178000635FE00293F7740099C793F7F400914602
:101790006383D70091049397440063D80700B70789
:1017A00000F8FD17FD8C130704089307E00F63CBC7
:1017B000E70493976400A5831377F70F9DB58547DA
:1017C000B386E74011C76D4601478147E34BD6E436
:1017D0001304E40933948400B3D7D400B3348000F5
:1017E000C58F13F7770019C713F7F7009146630306
:1017F000D700910713975700634C07009A07A583FA
:10180000014705B51307F00F814721BD0244BDB75D
:101810000547814739B5135775013706800093078F
:10182000F6FF1377F70F9305E007B3F6A70093577A
:10183000F501014563F4E50099C382808280930736
:10184000E0097D55E3EBE7FE93055009B3E7C600D9
:1018500063D7E5001307A7F63395E70082801305E9
:1018600060093307E54033D5E7008280511106C493
:1018700022C215CD2A84D1209307E0093387A740DF
:101880009307600963C0E704A1469377F70F63D518
:10189000A60061153314A4002604258026041355E0
:1018A0009400A2401244DE075D8D31018280014424
:1018B000260413559400A24012448147DE075D8D33
:1018C000310182809307900963DDE7009306B5013B
:1018D0009547B316D400898FB336D0003354F40043
:1018E000558C954763D6A7009307B5FF3314F400D2
:1018F000B70600FCFD16937774003376D40085C3D9
:101900009377F4009145638CB70011069317560046
:1019100063D707009307F009758E3387A740131428
:1019200066002580260413559400A2401244937744
:10193000F70FDE075D8D31018280C167637CF502A0
:101940009307F00F1307000263EBA700970700004F
:1019500093870725AA9788233305A7408280218192
:10196000970700009387C723AA9788236147330509
:10197000A7408280B7070001636DF500618197077A
:1019800000009387E721AA97882321473305A740C2
:10199000828041819707000093878720AA97882338
:1019A00041473305A7408280B3C7A5008D8B33071D
:1019B000C50081E78D4763E7C702AA87637EE50A12
:1019C000942185078505A38FD7FEE3EBE7FE828090
:1019D000942185078505A38FD7FEE3EBE7FE02443C
:1019E0001101828093763500AA8789CA94218507E0
:1019F0008505A38FD7FE93F63700C5BF9376C7FF43
:101A0000138606FE63F5C706711122C0C04903A301
:101A1000050083A38500C0CB804D23A0670003A3EE
:101A2000450080CFC04D23A2670083A2C50003A359
:101A3000050193854502C0CF03A4C5FF23A4770009
:101A400023A6570023A867009387470223AE87FE8B
:101A5000E3EEC7FAE3F3D7F890419107910523AE7F
:101A6000C7FECDBF90419107910523AEC7FEE3EBC2
:101A7000D7FEE3E7E7F4828082800000F6FFE0DD36
:101A800000009C810A00664E0F00AE3D1400983A9B
:101A9000190010271E00681F23006E192800B414B7
:101AA0002D00F4103200FC0D3700900B3C00A6090D
:101AB000410016084600CC064B00BE055000E2046B
:101AC000550024045A008E035F000C0364009E023C
:101AD0006E00FE0100C07F440000FA4354F9FFFF8E
:101AE00066F8FFFF4EF9FFFF6EF8FFFF4EF9FFFFAC
:101AF00040F8FFFF4EF9FFFF6EF8FFFF66F8FFFFAB
:101B000066F8FFFF40F8FFFF6EF8FFFF74F8FFFF75
:101B100074F8FFFF74F8FFFF40F8FFFF26F8FFFF9F
:101B200026F8FFFF0EF9FFFF48FAFFFF0EF9FFFF4F
:101B300000F8FFFF0EF9FFFF48FAFFFF26F8FFFF4E
:101B400026F8FFFF00F8FFFF48FAFFFF34F8FFFF19
:101B500034F8FFFF34F8FFFF00F8FFFF9CFBFFFFA6
:101B6000E0FAFFFFE0FAFFFFDEFAFFFFE4FAFFFF13
:101B7000E4FAFFFFBCFAFFFFDEFAFFFFE4FAFFFF23
:101B8000BCFAFFFFE4FAFFFFDEFAFFFF8AFBFFFF6C
:101B90008AFBFFFF8AFBFFFFBCFAFFFF0001020286
:101BA00003030303040404040404040405050505F5
:101BB00005050505050505050505050506060606D1
:101BC00006060606060606060606060606060606B5
:101BD00006060606060606060606060607070707A1
:101BE0000707070707070707070707070707070785
:101BF0000707070707070707070707070707070775
:101C00000707070707070707070707070707070764
:101C10000707070707070707070707070808080850
:101C20000808080808080808080808080808080834
:101C30000808080808080808080808080808080824
:101C40000808080808080808080808080808080814
:101C50000808080808080808080808080808080804
:101C600008080808080808080808080808080808F4
:101C700008080808080808080808080808080808E4
:101C800008080808080808080808080808080808D4
:0C1C9000080808080808080808080808E8
:101C9C0001020304050607080102030405060708F0
:101CAC00006CDC020204060804080C100810182052
:101CBC001020304020406080010203040506070814
:081CCC000102030405060708EC
:00000001FF
