:100000006F00207600000000F2010000F401000003
:1000100000000000000000000000000000000000E0
:1000200000000000000000000000000000000000D0
:1000300060070000000000006007000000000000F2
:100040006007000060070000600700006007000014
:100050006007000060070000600700006007000004
:1000600060070000600700006007000060070000F4
:1000700060070000600700006007000060070000E4
:1000800048050000600700006007000060070000EE
:10009000600700006007000072050000000000001B
:1000A000511126C022C206C4828282441244A24058
:1000B000310182802A86014593F6150091C232955E
:1000C00085810606F5F9828000000000634E050276
:1000D00063C305042E86AA857D5515C285466378BF
:1000E000B6006356C00006068606E36CB6FE014500
:1000F00063E4C500918D558D85820582F5FA828075
:100100008682C93F2E8582823305A04063D70500D1
:10011000B305B040C1B7B305B0408682653F330533
:10012000A0408282868263C70500634905005D376F
:100130002E858282B305B040E35B05FE3305A04007
:10014000513F3305B040828200003D432A876373EC
:10015000C3029377F700BDEFADE5937606FF3D8AC6
:10016000BA960CC34CC30CC74CC74107E36BD7FE10
:1001700011E28280B306C3408A0697020000969679
:100180006780A6002307B700A306B7002306B700C1
:10019000A305B7002305B700A304B7002304B700E5
:1001A000A303B7002303B700A302B7002302B700DD
:1001B000A301B7002301B700A300B7002300B700D5
:1001C000828093F5F50F93968500D58D9396050162
:1001D000D58D61B793962700970200009696868288
:1001E000E78086FA9680C1171D8F3E96E374C3F8A8
:1001F000A5B701A0B707EFBE37E700E09387070870
:100200003CC701A0EFF2DFE91301C1FD6146814562
:100210006800253F85451305502302C002C202C471
:10022000EF005010A14741447C808A858D473715E7
:1002300001403EC222C4EF002074371501409947A7
:100240008A85130505807C8002C4EF00E0728A85F0
:10025000371501406080EF00207237240140B70756
:100260000E003ECC6C008547130504402300F102CC
:1002700002C602C802CA02CE692B85451305044096
:10028000C52313050440ED23930404402685F5237C
:1002900075FD1305044037240140E5231304044091
:1002A0002285ED2375FD1301410201B5EFF25FDFF9
:1002B00037240140AA859D46054613050440FD23C9
:1002C000854513050440F923930404408945268598
:1002D000792D6DDD130504407925C1BBEFF25FDC9C
:1002E00031118545054502C402C62318010002C02C
:1002F00002C2EF001005BD473EC4BD679387F7A556
:100300002C00370500403EC6EF00900585453705B7
:100310000040EF00301713070004B7E700E023A206
:10032000E7280546854537050040EF00D0119307C3
:1003300060127C8089475C810A8585473EC2EF0058
:10034000006D13052003EF00B030854537050040F0
:10035000EF00900C510191BBEFF29FD4AA84056588
:10036000130141FD2E8413050582854532C002C864
:1003700002CA02CC02C202C42316010002CE02D07D
:1003800002D202D4EF00007A9147FC803715014079
:10039000E1473ECC0C088D47130505403ECAE92BCA
:1003A0006082373401404C00130504C06484231577
:1003B000010023130100EF00A07A0246C167938772
:1003C00007066C08130504C03ECE2311C102231298
:1003D0000102EF00C07D130504C0A145EF007009C4
:1003E000130504C08545EF003007130504C085459B
:1003F000EF0010048545130504C0EF00F001130160
:10040000C10265B1EFF2DFC9AA8537350140130596
:1004100005C0EF00F00651B9EFF29FC81165130156
:10042000C1FD85451305150202C402C602C802CAF1
:1004300002CC02CE02D002C002C2ED253714014028
:10044000930700047C848D44E1472C00130504408D
:1004500026C63EC81523930700027C842C009147D2
:100460001305044026C63EC8012BF16737440140FE
:10047000938707203ECA4C08B7070C001305048079
:100480003ECE02CC23100102EF00D00205469305B8
:10049000505213050480EF001010930700127C8067
:1004A0000A8585473EC22301010095238545130532
:1004B0000480EF00F00C13014102C5BEEFF25FBEF5
:1004C000054599230D2CEF0070152D3B013DA937F3
:1004D00001469305F0021305703EBD3DB7040020B0
:1004E00023A00182138401821830854709C7E31FC6
:1004F000F7FE3C3001A8182085476314F70018B0B8
:10050000E5B73830E392E7FE3C20A30104006381A5
:10051000E70291CB09476383E7020D47E396E7FCC7
:100520006A20CD35D1B70945513323AEA4026DBF42
:100530000545AD3B9387C403C8C37DB70145BD33B3
:100540009387C40388C74DB7711122C03744014057
:100550009305505213050480EF00500719C5930509
:10056000505213050480EF00300A02441101730059
:100570002030711185453705004022C0112F41C937
:100580009387018294330546938501826361D60483
:10059000B823B0B30D4505071377F70FB8A36378F9
:1005A000E5022381070085E6B706002093869603BF
:1005B000982205071377F70F98A2A54663F9E6007E
:1005C00090A30146A1453715014015292DA8982172
:1005D0008547E308F7FE37040020130484031C203A
:1005E0002D47850793F7F70F1CA0637EF700A14501
:1005F00037150140012113361500A145371501407B
:10060000FD2E23000400854537050040712D02446E
:10061000110173002030EFF2BFA8371402401C40D4
:100620003707FFF8414593E717001CC05C40F98F7E
:100630005CC01C403707F7FE7D17F98F1CC01C40BB
:100640003707FCFF7D17F98F1CC05C4041777D1791
:10065000F98F5CC0B7079F001CC419291C4C93E795
:1006600007021CCCB717014003A707409386074039
:100670001377F7F023A0E74003A7074013670708A5
:1006800023A0E74089479CCAB7F7FF1F03C5477DF2
:100690009307F00F6304F5007D89D92EB727024038
:1006A0009843C176FD16719B98C398431367170052
:1006B00098C3B7170240D843D8C3D843758FD8C35F
:1006C000D843B7060001D8C39843558F98C39843C1
:1006D00093166700E3DD06FED843B7160240719B10
:1006E000D8C3D84313672700D8C32147DC42B18B56
:1006F000E39EE7FE5DBAEFF2BF9A371702405C4314
:10070000370400209146B18B130404016385D700A0
:10071000A1466381D704B7376E01938707601CC079
:10072000B7160240DC420840918313F7F700B70781
:10073000002093870700BA978C23DC4293F5F50FCE
:1007400093F707083357B50099E369322A8718C031
:100750006FF0BF955C43B777DC02938707C0C1B7E2
:1007600001A0970100209381610D138181FC130585
:10077000000A970500209385E588170600201306D8
:10078000668863FAC5008322050023A05500110581
:100790009105E3EAC5FE170500001305656F97058F
:1007A000002093852586170600201306268963FA04
:1007B000C5008322050023A0550011059105E3EA39
:1007C000C5FE1705002013056587938501836377B0
:1007D000B500232005001105E36DB5FEB72200002A
:1007E00093820288739002308D4273904280970208
:1007F00000009382228193E2320073905230EFF036
:100800009FE1970200009382A2CB73901234730091
:1008100020305C413707F1FF1307F7EF7D8FDC4194
:100820009441A207D58FD98F5CC11C4537F7F1FFE2
:100830001307D77FD4457D8F9C49D58F9445860675
:10084000D58FD98F1CC55C55370710FF7D177D8F5D
:10085000DC29FD1793F7F70FD207D98F5CD582807B
:100860001C4589C593E717001CC58280F99BEDBF25
:100870001C4593E787001CC5828008450D810589CA
:1008800082801C4593E747001CC58280084509818A
:10089000058982801C4591C537075000D98F1CC53A
:1008A00082803707B0FF7D17F98FD5BFA54763F862
:1008B000B704138765FF931717008322C500BA9703
:1008C0001D433313F3001343F3FF33735300B39704
:1008D000F600B3E767005CC5994763E3C7047D167C
:1008E000931726003E965859FD47B397C70093C704
:1008F000F7FFF98FB395C500DD8D4CD982809397B2
:10090000150003230501AE971D473317F700134762
:10091000F7FF33776700B397F6005D8F18C96DBF97
:10092000B14763E2C7026516931726003E96185931
:10093000FD47B397C70093C7F7FFF98FB395C5007D
:10094000DD8D0CD982804D161317260054553A962A
:10095000FD47B397C70093C7F7FFF58FB395C50061
:10096000DD8D4CD5828068454205418182800841F9
:100970006D8D3335A0008280944593F7060193F284
:10098000F60081C7DC41B3E2F20083D3050093F7A0
:10099000F30FA5C303230500611122C226C08147BE
:1009A000130480029304800405473316F70033F7DD
:1009B000C3006312E602939527003D473317B70043
:1009C0001347F7FF33736700B395B20033E3650055
:1009D000639D860050C985072147E397E7FC1244D1
:1009E00023206500824421018280E39696FE10C98F
:1009F000DDB7828048456D8D3335A000828019C2F5
:100A00000CC982804CC9828023A4A182828083A6E3
:100A10008182854718216390F6021C31639CD702BE
:100A20003C219A0793E707F8B7E600E093F7F70F42
:100A3000BA962380F6408546935757003397E600D1
:100A4000544189CE938707048A07B7E600E0B6973A
:100A500098C38280EDF33C219A07F9B79387070684
:100A6000B7E600E08A07B69798C30F1000008280AF
:100A7000371702401C430E0593F777F05D8D08C3CE
:100A80008280EFF2EFE1371702405C4391462A84FF
:100A9000B18B6385D700A1466380D708B7376E0155
:100AA000938707601CC0B7160240DC42918313F79E
:100AB000F700B707002093878702BA978C23DC42A0
:100AC000184093F5F50F93F707083355B70081E702
:100AD0003A85EFF02FE048C008C448C4B717024079
:100AE000DC438D46AD83FD8B13D737008A07F18B2E
:100AF000D98F13F6370113F7370063F4C600138755
:100B000047FFB707002093874701BA978C23EFF080
:100B10006FDC08C86FF06FD95C43B777DC0293874E
:100B200007C049B799C5371702401C4F5D8D08CFE4
:100B30008280B7170240984F1345F5FF798D88CF13
:100B4000828099C5371702405C4F5D8D48CF828007
:100B5000B7170240D84F1345F5FF798DC8CF828073
:100B60001E2137370140130707C0C207C183630640
:100B7000E500370700406316E500BA2193F7F7F860
:100B8000D98FFA2193F7F7CFC207C183D98F1EA15E
:100B9000DE215EB59E211EB5B7370140938707C0A1
:100BA0006314F5009C251EB985475EA982801E311D
:100BB000922103D32500C207C183F99BC207C183D9
:100BC0001EB11E3156211A2DC207C183420741832F
:100BD0001377C7F8518F9225F59BC20633666600DE
:100BE000D18F37360140130606C0C1826310C5029B
:100BF000B225DD9B03D3E500D18FD221ED9B93F687
:100C0000F6CFD18FD22533666600D18E56A11AADAC
:100C1000FA2158D91EB182801E2189C593E7170099
:100C20001EA18280C207C183F99BC207C183CDBFC9
:100C30008357450491C52167D98F2312F50482801B
:100C4000C607C583DDBF5E2501C6DD8D4EA582804A
:100C500093C5F5FFFD8DDDBF1E2189C593E707080C
:100C60001EA18280C207C18393F7F7F7C207C18331
:100C7000C5BF1E2DC207C183DD9BDD8D0EAD8280F9
:100C80004CD9828093C5F5FFC205C1810EA982802F
:100C90001E294A25ED8F4205418189C76D8D333567
:100CA000A00082800145828093C5F5FFC205C18105
:100CB0000EA98280EFF2CFBE1629F577FD17F58FCA
:100CC000F621DA252111D58F1EA95625FD779387A8
:100CD000379FF58FD6212A842EC0D58F9625D58FA4
:100CE000B625D58F5EA55E29C207C18393F7F7CFDE
:100CF0005D8F5AA948007133B74701409387078039
:100D000082456312F406C2475A24139517003E9594
:100D100042070E0541873E958C41635807048605BE
:100D2000EFF04FBB930540062AC0EFF0AFBA824701
:100D300093144500930540063E85EFF06FBC5E249A
:100D4000C207C18763D507020E0593054006130548
:100D50002503EFF02FB81D89C98CC204C18006A4F9
:100D600061016FF08FB4B24745B78A0555BF1205D0
:100D70009305400613052503EFF0CFB53D89E9BF84
:100D800091C55E250967D98F5EA582805A25F977BE
:100D9000FD17F98FD5BF13F7F50F85471583B39569
:100DA000B7006319F7009307C500984301CED98DAA
:100DB0008CC38280894693074501E318D7FE9307C9
:100DC0000501E5B793C5F5FFF98DDDB713F7F50F0D
:100DD00085461583B397B6006311D7025A25F98F5C
:100DE0001A2101454207418381CB0545A181B315F5
:100DF000B5006D8F3335E000828089466314D700DB
:100E00001A29F1BF5A29E1BFA1818547B397B700DD
:100E100093C7F7FFC207C1831EA18280EFF24FA8DC
:100E2000B707002003A50701B7157A0093850520B1
:100E3000EFF04FAA1375F50F2387A1829317550082
:100E4000898F8A073E950E052396A1826FF0EFA544
:100E5000EFF20FA537F400E05C40AA85F99B5CC077
:100E600003D5C182EFF00FA508C8232404001C405D
:100E700093E717001CC0B7F700E0D843058B75DF78
:0C0E80009843799B98C36FF04FA20000CC
:100E8C00010203040506070801020304050607080E
:100E9C00006CDC020204060804080C100810182070
:100EAC001020304020406080010203040506070832
:080EBC0001020304050607080A
:00000001FF
