:100000006F00100D00000000F2010000F40100007C
:1000100000000000000000000000000000000000E0
:1000200000000000000000000000000000000000D0
:10003000CE08000000000000CE0800000000000014
:10004000CE080000CE080000CE080000CE08000058
:10005000CE080000CE080000CE080000CE08000048
:10006000CE080000CE080000CE080000CE08000038
:10007000CE080000CE080000CE080000CE08000028
:10008000B0060000CE080000CE080000CE08000038
:10009000CE080000CE080000DA06000000000000D4
:1000A000511126C022C206C4828282441244A24058
:1000B000310182802A86014593F6150091C232955E
:1000C00085810606F5F9828000000000634E050276
:1000D00063C305042E86AA857D5515C285466378BF
:1000E000B6006356C00006068606E36CB6FE014500
:1000F00063E4C500918D558D85820582F5FA828075
:100100008682C93F2E8582823305A04063D70500D1
:10011000B305B040C1B7B305B0408682653F330533
:10012000A0408282868263C70500634905005D376F
:100130002E858282B305B040E35B05FE3305A04007
:10014000513F3305B040828200003D432A876373EC
:10015000C3029377F700BDEFADE5937606FF3D8AC6
:10016000BA960CC34CC30CC74CC74107E36BD7FE10
:1001700011E28280B306C3408A0697020000969679
:100180006780A6002307B700A306B7002306B700C1
:10019000A305B7002305B700A304B7002304B700E5
:1001A000A303B7002303B700A302B7002302B700DD
:1001B000A301B7002301B700A300B7002300B700D5
:1001C000828093F5F50F93968500D58D9396050162
:1001D000D58D61B793962700970200009696868288
:1001E000E78086FA9680C1171D8F3E96E374C3F8A8
:1001F000A5B701A0B707EFBE37E700E09387070870
:100200003CC701A0EFF2DFE95D71614681456800FE
:100210002D3F1306C0028145481002C002C202C42D
:100220002D37854513055023EF00D037854505450B
:10023000EF007035A14741447C808A858D47371592
:1002400001403EC222C4EF00501937150140194742
:100250008A8513050580788002C4EF0010188A850E
:10026000371501406080EF005017372401400547E3
:100270008D473AC86C0037070E00130504403ACC8E
:100280002300F10202C602CA02CEEF00606F9D4653
:100290000546894513050440EF0040799D4609460F
:1002A000854513050440EF0060789D460D46814565
:1002B00013050440EF008077B704024013858400E3
:1002C000EF0070028D473ED8930700083EDC93078D
:1002D00000101307C4443EDE930700403AD2BEC06C
:1002E00037070020930700021307C7031385840014
:1002F000BEC24C1089673AD4BEC402D602DA82C6A6
:10030000EF009007138584008545EF00700A85454E
:1003100013050440EF00A06C854513050440EF0071
:10032000006B13050440EF00A06C93040440268585
:10033000EF00A06C6DFD1305044037240140EF0071
:10034000406C130404402285EF00406C6DFD616138
:10035000A9BBEFF2FFD431118545054502C402C6A1
:100360002318010002C002C2EF00B025BD473EC401
:10037000BD679387F7A52C00370500403EC6EF0008
:100380003026854537050040EF00D03713070004BD
:10039000B7E700E023A2E72805468545370500407A
:1003A000EF007032930760127C8089475C810A8578
:1003B00085473EC2EF00D00B13052003EF005051DC
:1003C000854537050040EF00302D5101F9B9EFF2B6
:1003D0003FCDAA840565130141FD2E8413050582D6
:1003E000854532C002C802CA02CC02C202C423162A
:1003F000010002CE02D002D202D4EF00B01A91471F
:10040000FC8037150140E1473ECC0C088D471305B1
:1004100005403ECAEF00607C6082373401404C00EA
:10042000130504C064842315010023130100EF00A9
:10043000301B0246C167938707066C08130504C08A
:100440003ECE2311C10223120102EF00501E1305FC
:1004500004C0A145EF00F029130504C08545EF0055
:10046000B027130504C08545EF009024854513058A
:1004700004C0EF0070221301C10205B9EFF25FC2A0
:10048000AA8537350140130505C0EF00702731B943
:10049000EFF21FC111651301C1FD8545130515025A
:1004A00002C402C602C802CA02CC02CE02D002C0F6
:1004B00002C2EF00300F37140140930700047C8420
:1004C0008D44E1472C001305044026C63EC8EF00CA
:1004D000C070930700027C842C00914713050440F0
:1004E00026C63EC8DD2DF1673744014093870720BB
:1004F0003ECA4C08B7070C00130504803ECE02CC60
:1005000023100102EF0010230546930550521305F6
:100510000480EF005030930700127C800A858547E5
:100520003EC223010100EF00A0748545130504803D
:10053000EF00102D130141028DBEEFF27FB6511175
:1005400005452527392EEF0070356D391935893766
:1005500001469305F0021305703E953DB704002057
:1005600023A80182138401831C30054785C3E39FC0
:10057000E7FE3830E31AF7FE3820A30104006305D4
:10058000070EE313F7FE6A20D53DF9BF1C2005478F
:100590006394E7001CB0C9BF3C30E397E7FC382008
:1005A000A301040005C3E311F7FC9387C4033727B5
:1005B00000008325078DC847EF00D065E35505FC93
:1005C0008947C9BF37250140854513050540992155
:1005D0000945CD2B75DD0945ED2B9387C403DA233F
:1005E0008A2303D32700BAA7EAA31AC43AC2EF109A
:1005F0008019372600008325468CEF001031B7267E
:10060000000083A5868CEF00B0692243B707002065
:100610001387C703BA87C8C72AC01A85EF10A01668
:10062000372600008325468CEF00302E8246B685A3
:10063000EF001067EF10C00FB726000083A6C68C2E
:10064000B70700209387C703124794CB8AA79387E5
:10065000C403138627019386C403AE2F8907EEAB2C
:10066000E39DC7FE9AAE09B73725014085451305BE
:1006700005404D260945B92375DD0945992B93871A
:10068000C403BA238A239AA7DA23EAA32981BAA743
:10069000131715002A970E073A9506051375E50FEF
:1006A000EF10600EB70700209387C703C8C76DBD62
:1006B000711122C037440140930550521305048044
:1006C000EF00D01819C59305505213050480EF00B0
:1006D000B01B0244110173002030711185453705AC
:1006E000004022C0EF00D00241C9938701839433B8
:1006F0000546938501836360D604B823B0B305072C
:100700001377F70FB8A36378E6022381070085E625
:10071000B706002093869603982205071377F70FF4
:1007200098A2A54663F9E60090A30146A1453715B6
:1007300001403D232DA898218547E308F7FE3704A3
:100740000020130484031C202D47850793F7F70F1F
:100750001CA0637EF700A14537150140ED29133633
:100760001500A14537150140E52923000400854502
:1007700037050040EF00407B024411017300203038
:10078000EFF21F92371402401C403707FFF8414533
:1007900093E717001CC05C40F98F5CC01C40370712
:1007A000F7FE7D17F98F1CC01C403707FCFF7D1733
:1007B000F98F1CC05C4041777D17F98F5CC0B7078B
:1007C0009F001CC439231C4C93E707021CCCB717AD
:1007D000014003A70740938607401377F7F023A053
:1007E000E74003A707401367070823A0E7408947AE
:1007F0009CCAB7F7FF1F03C5477D9307F00F63043B
:10080000F5007D89F921B72702409843C176FD168E
:10081000719B98C398431367170098C3B71702409A
:10082000D843D8C3D843758FD8C3D843B70600017F
:10083000D8C39843558F98C3984393166700E3DD58
:1008400006FED843B7160240719BD8C3D84313673E
:100850002700D8C32147DC42B18BE39EE7FE6FF04F
:10086000DF84EFF2FF83371702405C433704002038
:100870009146B18B130404016385D700A1466382BE
:10088000D704B7376E01938707601CC0B7160240C4
:10089000DC420840918313F7F700B70700209387E5
:1008A0000700BA978C23DC4293F5F50F93F70708FE
:1008B0003357B50081E7EFF0FF812A8718C06FF04A
:1008C000CFFE5C43B777DC02938707C07DBF01A0F2
:1008D00097010020938181F6138181FC1305000AA2
:1008E00097F5FF1F9385057217F6FF1F1306867194
:1008F00063FAC5008322050023A055001105910568
:10090000E3EAC5FE171500001305051997F5FF1F4B
:100910009385456F17F6FF1F1306467263FAC500ED
:100920008322050023A0550011059105E3EAC5FEC9
:1009300017F5FF1F13058570938501846377B50054
:10094000232005001105E36DB5FEB7220000938258
:100950000288739002308D427390428097F2FFFFBD
:100960009382426A93E2320073905230EFF05FE17B
:10097000970200009382A2BC73901234730020305F
:100980005C413707F1FF1307F7EF7D8FDC4194419E
:10099000A207D58FD98F5CC11C4537F7F1FF13072C
:1009A000D77FD4457D8F9C49D58F94458606D58FBA
:1009B000D98F1CC55C55370710FF7D177D8FDC294B
:1009C000FD1793F7F70FD207D98F5CD582801C45AE
:1009D00089C593E717001CC58280F99BEDBF1C45B4
:1009E00089C593E707101CC5828093F7F7EFE5BF31
:1009F0001C4593E787001CC5828008450D81058949
:100A000082801C4593E747001CC582800845098108
:100A1000058982801C4591C537075000D98F1CC5B8
:100A200082803707B0FF7D17F98FD5BFA54763F8E0
:100A3000B704138765FF931717008322C500BA9781
:100A40001D433313F3001343F3FF33735300B39782
:100A5000F600B3E767005CC5994763E3C7047D16FA
:100A6000931726003E965859FD47B397C70093C782
:100A7000F7FFF98FB395C500DD8D4CD98280939730
:100A8000150003230501AE971D473317F7001347E1
:100A9000F7FF33776700B397F6005D8F18C96DBF16
:100AA000B14763E2C7026516931726003E961859B0
:100AB000FD47B397C70093C7F7FFF98FB395C500FC
:100AC000DD8D0CD982804D161317260054553A96A9
:100AD000FD47B397C70093C7F7FFF58FB395C500E0
:100AE000DD8D4CD582801C4141677917F98F1CC17F
:100AF000232005002322050023240500B707024018
:100B000023260500138787006317E500D843136782
:100B1000F700D8C382801387C7016316E500D84366
:100B20001367070FFDB7138707036318E500D84362
:100B30008566938606F0558FE9BF138747046315D2
:100B4000E500D843BD66C5BF138787056316E5007A
:100B5000D843B7060F00C5B71387C7066316E5006D
:100B6000D843B706F000C1BF13870708E314E5FABE
:100B7000D843B706000FC1B71841E177BD079451BC
:100B80007D8F9C45D58F9449D58FD449D58F944D71
:100B9000D58FD44DD58FD451D58F9455D58FD98F2E
:100BA0001CC1DC455CC19C411CC5DC415CC582802C
:100BB0001C4189C593E717001CC1828041677917E2
:100BC000F98FDDBFB70702409C437D8D3335A00010
:100BD0008280B7070240C8C38280944593F706011C
:100BE00093F2F60081C7DC41B3E2F20083D3050043
:100BF00093F7F30FA5C303230500611122C226C09A
:100C00008147130480029304800405473316F700DC
:100C100033F7C3006312E602939527003D4733176D
:100C2000B7001347F7FF33736700B395B20033E3A0
:100C30006500639D860050C985072147E397E7FC5F
:100C4000124423206500824421018280E39696FEAF
:100C500010C9DDB7828048456D8D3335A000828094
:100C600019C20CC982804CC9828023ACA1828280C7
:100C700083A68183854718216390F6021C31639C0B
:100C8000D7023C219A0793E707F8B7E600E093F70D
:100C9000F70FBA962380F64085469357570033974F
:100CA000E600544189CE938707048A07B7E600E03F
:100CB000B69798C38280EDF33C219A07F9B79387E2
:100CC0000706B7E600E08A07B69798C30F10000042
:100CD0008280371702401C430E0593F777F05D8D35
:100CE00008C38280EFF2CFBB371702405C439146C6
:100CF0002A84B18B6385D700A1466380D708B737B4
:100D00006E01938707601CC0B7160240DC429183D6
:100D100013F7F700B707002093878702BA978C2351
:100D2000DC42184093F5F50F93F707083355B700E9
:100D300081E73A85EFF00FBA48C008C448C4B71736
:100D40000240DC438D46AD83FD8B13D737008A0705
:100D5000F18BD98F13F6370113F7370063F4C60010
:100D6000138747FFB707002093874701BA978C2363
:100D7000EFF04FB608C86FF04FB35C43B777DC02B3
:100D8000938707C049B799C5371702405C4B5D8D03
:100D900048CB8280B7170240D84B1345F5FF798DB9
:100DA000C8CB828099C5371702401C4F5D8D08CF94
:100DB0008280B7170240984F1345F5FF798D88CF91
:100DC000828099C5371702405C4F5D8D48CF828085
:100DD000B7170240D84F1345F5FF798DC8CF8280F1
:100DE0001E2137370140130707C0C207C1836306BE
:100DF000E500370700406316E500BA2193F7F7F8DE
:100E0000D98FFA2193F7F7CFC207C183D98F1EA1DB
:100E1000DE215EB59E211EB5B7370140938707C01E
:100E20006314F5009C251EB985475EA982801E319A
:100E3000922103D32500C207C183F99BC207C18356
:100E40001EB11E3156211A2DC207C18342074183AC
:100E50001377C7F8518F9225F59BC206336666005B
:100E6000D18F37360140130606C0C1826310C50218
:100E7000B225DD9B03D3E500D18FD221ED9B93F604
:100E8000F6CFD18FD22533666600D18E56A11AAD2A
:100E9000FA2158D91EB182801E2189C593E7170017
:100EA0001EA18280C207C183F99BC207C183CDBF47
:100EB0008357450491C52167D98F2312F504828099
:100EC000C607C583DDBF5E2501C6DD8D4EA58280C8
:100ED00093C5F5FFFD8DDDBF1E2189C593E707088A
:100EE0001EA18280C207C18393F7F7F7C207C183AF
:100EF000C5BF1E2DC207C183DD9BDD8D0EAD828077
:100F00004CD9828093C5F5FFC205C1810EA98280AC
:100F10001E294A25ED8F4205418189C76D8D3335E4
:100F2000A00082800145828093C5F5FFC205C18182
:100F30000EA98280EFF2CF961629F577FD17F58F6F
:100F4000F621DA252111D58F1EA95625FD77938725
:100F5000379FF58FD6212A842EC0D58F9625D58F21
:100F6000B625D58F5EA55E29C207C18393F7F7CF5B
:100F70005D8F5AA94800BD33B7470140938707806A
:100F800082456312F406C2475A24139517003E9512
:100F900042070E0541873E958C416358070486053C
:100FA000EFF04F93930540062AC0EFF0AF928247CF
:100FB00093144500930540063E85EFF06F945E2440
:100FC000C207C18763D507020E05930540061305C6
:100FD0002503EFF02F901D89C98CC204C18006A49F
:100FE00061016FF08F8CB24745B78A0555BF120576
:100FF0009305400613052503EFF0CF8D3D89E9BF2A
:1010000091C55E250967D98F5EA582805A25F9773B
:10101000FD17F98FD5BF13F7F50F85471583B395E6
:10102000B7006319F7009307C500984301CED98D27
:101030008CC38280894693074501E318D7FE930746
:101040000501E5B793C5F5FFF98DDDB713F7F50F8A
:1010500085461583B397B6006311D7025A25F98FD9
:101060001A2101454207418381CB0545A181B31572
:10107000B5006D8F3335E000828089466314D70058
:101080001A29F1BF5A29E1BFA1818547B397B7005B
:1010900093C7F7FFC207C1831EA18280EFF24F8082
:1010A000B707002003A50701B7157A00938505202F
:1010B000EFF04F821375F50F238FA1829317550020
:1010C000898F8A073E950E05239EA1826FE0FFFD62
:1010D000EFE21FFD37F400E05C40AA85F99B5CC09D
:1010E00003D5C183EFE01FFD08C8232404001C4082
:1010F00093E717001CC0B7F700E0D843058B75DFF6
:101100009843799B98C36FE05FFA1301C1FD935632
:10111000750126CC131695009354F50106D022CE06
:1011200093F6F60F2582A682638B06109307F00FC5
:10113000638CF6100E06B70700045D8E938616F8D2
:101140000144814393D775011393950093F7F70FEB
:1011500013539300FD81E5C31307F00F6386E70285
:10116000938717F80E03370700049D8E3363E3005F
:1011700081475D8C17050000130505760A042A9443
:101180000040AD8C22950285938616F06314030C03
:1011900089475D8C17050000130505780A042A9419
:1011A00003230400AD8C1A95028581449305F00F4A
:1011B000B7074000139597008250724493977501CA
:1011C0002581FE045D8D458DE2441301410282803C
:1011D0009305F00F8147F9BF1A86AE82BE83894717
:1011E0006384F3228D47E382F3FC85476384F30C29
:1011F0009385F60793F412006356B0189377760040
:1012000099C79377F60011456383A70011069317DA
:10121000460063D80700B70700F8FD177D8E938559
:1012200006089307E00FE3C5B7FA93176600A58396
:1012300093F5F50F41B763180304854799BF15E28D
:10124000114481468543FDBD01EA21449306F00F18
:101250008943CDBD8D4731BF31449306F00F8D4397
:10126000D5B532852EC432C026C2ED23024693077F
:10127000B5FF9306A0F83316F600898E014481432A
:101280009242A245C1B51A8536CA16C832C61EC4D6
:101290002EC21AC0C123D24602439307B5FFAA96B5
:1012A0003313F3009386660781479245A243324683
:1012B000C242C1B593F4120081458147E5BDC167C3
:1012C00013175300FD17F98F3ACA3EC21354070192
:1012D000637D660E3285A28536C632C4EFE09FDF9D
:1012E00092452AC0EFE01FDD2246B246AA8732832C
:1012F000FD160146A2851A8536C83EC632C4EFE007
:101300003FE02246B2474205518DC246637FF50059
:10131000524782453A951386F5FF6362E50E637086
:10132000F50E1386E5FF32C03A95B307F5403E85CA
:10133000A28536C83EC6EFE0FFD992452AC4EFE049
:101340007FD7B2472AC2A2853E85EFE07FDB1246F7
:1013500042052243C246637CC50052479307F3FF10
:101360003A95636CE508637AC50879133A95824724
:101370003306C5403336C000C207B3E767005D8E51
:10138000A682BDB505433303B34091C56D45814584
:101390008147E34165E29386E609B316D600B35769
:1013A00066003336D000D18F93F6770099C693F656
:1013B000F70011466383C6009107139757006342F5
:1013C00007049A07A5838145F5B3135316001A85C0
:1013D000A28536C832C61AC4EFE0DFCF92452AC0D4
:1013E000EFE05FCD3246AA87C2467E0641822243A5
:1013F00011B7AE82BE830146DDB33E838DBF32C0DE
:101400002DB7854581477DB393F412009305F00F06
:1014100081474DB313567501B7078000FD1713D7E9
:1014200075011376F60F1303F00FB3F2A70093566E
:10143000F501ED8F1377F70FFD81630766026309EE
:10144000670005EA11EB89EB0145639B020082808E
:101450000945F5FF65DA31A8638C02026380B604A2
:101460000545F5D67D5582800945639802026304DF
:10147000C70211E3F5D7E395B6FEE343C7FE634722
:10148000E600E3EF57FC0145E3F3F2FC99E2D9BF34
:10149000F1D905458280E5D3828082800146C5B7B7
:1014A000011122CC1354750126CA06CE931495005F
:1014B0001374F40FA5809356F5014DCC9307F00FEC
:1014C000630CF40CB70700048E04DD8C130414F8CD
:1014D0008147014613D57501139795001375F50FD4
:1014E0002583FD814DC51303F00F630D65020E07C3
:1014F000130515F837030004336767002A94814306
:101500001305140033C3B6002AC03D459A826362B6
:10151000F51017050000130525448A07AA979C4378
:101520003E9502851304F40F61EB93E7270089438E
:10153000C1BF01431307F00FB7074000F2406244F8
:10154000A6075E07A5831315F301D98FD2445D8DDD
:1015500005618280AE82BA841E8689476306F60AD8
:101560008D47E308F6FC85471683631EF61A01478C
:101570008147E9B7B5E013D5750113979500137549
:10158000F50F9147014405462583FD8129FD19EB9F
:1015900093E717008543ADB79DE8A1471304F00F0B
:1015A00009460DBF3A8532C83EC62EC436C23AC07F
:1015B000552402471303B5FF098C33176700130442
:1015C000A4F881439246A245B247424615BFB147AF
:1015D0001304F00F0D46FDBD26852EC236C09D2C8E
:1015E0009307B5FF1304A0F8B394F400098C814766
:1015F000014682469245F9BD93E737008D4309B70E
:101600008947B682E31EF6F416831307F00F81476D
:1016100035B7C167FD17B3F3F400F98FC18041837B
:101620001E85BE85EFE01FA9AA82BA851E85EFE060
:101630007FA8AA83BE852685EFE0DFA7AA87BA85A3
:101640002685EFE03FA713D70201BE93BA9363F458
:10165000F300C1673E95C167FD17B3F4F300C20400
:10166000B3F2F200A6929394620093D30301B334D1
:10167000900093D2A201AA93B3E254009394630022
:10168000B3E454009397440063D70700024493D710
:1016900014008588DD8C1307F407635FE00293F77D
:1016A000740099C793F7F40091466383D7009104BF
:1016B0009397440063D80700B70700F8FD17FD8C27
:1016C000130704089307E00F63CBE70493976400C4
:1016D000A5831377F70F9DB58547B386E74011C7FC
:1016E0006D4601478147E34BD6E41304E409339484
:1016F0008400B3D7D400B3348000C58F13F77700CC
:1017000019C713F7F70091466303D70091071397A2
:101710005700634C07009A07A583014705B51307D7
:10172000F00F814721BD0244BDB70547814739B558
:1017300013577501370680009307F6FF1377F70FED
:101740009305E007B3F6A7009357F501014563F44D
:10175000E50099C3828082809307E0097D55E3EB21
:10176000E7FE93055009B3E7C60063D7E50013070A
:10177000A7F63395E7008280130560093307E5403B
:1017800033D5E7008280511106C422C215CD2A84C8
:10179000D1209307E0093387A7409307600963C00E
:1017A000E704A1469377F70F63D5A60061153314BC
:1017B000A40026042580260413559400A240124458
:1017C000DE075D8D310182800144260413559400AB
:1017D000A24012448147DE075D8D3101828093076C
:1017E000900963DDE7009306B5019547B316D40071
:1017F000898FB336D0003354F400558C954763D6A7
:10180000A7009307B5FF3314F400B70600FCFD16DC
:10181000937774003376D40085C39377F4009145B1
:10182000638CB70011069317560063D70700930720
:10183000F009758E3387A7401314660025802604AF
:1018400013559400A24012449377F70FDE075D8D85
:1018500031018280C167637CF5029307F00F1307A3
:10186000000263EBA700970700009387E712AA978F
:1018700088233305A7408280218197070000938742
:10188000A711AA97882361473305A7408280B7072D
:101890000001636DF5006181970700009387C70F12
:1018A000AA97882321473305A74082804181970763
:1018B00000009387670EAA97882341473305A74006
:1018C0008280000000C07F440000A040732B99C1BB
:1018D00000000C42EAF9FFFFFCF8FFFFE4F9FFFF0C
:1018E00004F9FFFFE4F9FFFFD6F8FFFFE4F9FFFF7B
:1018F00004F9FFFFFCF8FFFFFCF8FFFFD6F8FFFF3D
:1019000004F9FFFF0AF9FFFF0AF9FFFF0AF9FFFFD9
:10191000D6F8FFFFBCF8FFFFBCF8FFFFA4F9FFFFFC
:10192000DEFAFFFFA4F9FFFF96F8FFFFA4F9FFFF1F
:10193000DEFAFFFFBCF8FFFFBCF8FFFF96F8FFFFE1
:10194000DEFAFFFFCAF8FFFFCAF8FFFFCAF8FFFF81
:1019500096F8FFFFBEFCFFFF02FCFFFF02FCFFFF4B
:1019600000FCFFFF06FCFFFF06FCFFFFDEFBFFFFA6
:1019700000FCFFFF06FCFFFFDEFBFFFF06FCFFFF96
:1019800000FCFFFFACFCFFFFACFCFFFFACFCFFFF6B
:10199000DEFBFFFF0001020203030303040404044F
:1019A00004040404050505050505050505050505EB
:1019B00005050505060606060606060606060606CB
:1019C00006060606060606060606060606060606B7
:1019D000060606060707070707070707070707079B
:1019E0000707070707070707070707070707070787
:1019F0000707070707070707070707070707070777
:101A00000707070707070707070707070707070766
:101A1000070707070808080808080808080808084A
:101A20000808080808080808080808080808080836
:101A30000808080808080808080808080808080826
:101A40000808080808080808080808080808080816
:101A50000808080808080808080808080808080806
:101A600008080808080808080808080808080808F6
:101A700008080808080808080808080808080808E6
:101A800008080808080808080808080808080808D6
:041A90000808080832
:101A940001020304050607080102030405060708FA
:101AA400006CDC020204060804080C10081018205C
:101AB400102030402040608001020304050607081E
:081AC4000102030405060708F6
:00000001FF
