:100000006F00F01E00000000F2010000F40100008B
:1000100000000000000000000000000000000000E0
:1000200000000000000000000000000000000000D0
:10003000EC09000000000000EC09000000000000D6
:10004000EC090000EC090000EC090000EC090000DC
:10005000EC090000EC090000EC090000EC090000CC
:10006000EC090000EC090000EC090000EC090000BC
:10007000EC090000EC090000EC090000EC090000AC
:1000800084050000EC090000EC090000EC09000008
:10009000EC090000EC090000AE05000000000000C3
:1000A000511126C022C206C4828282441244A24058
:1000B000310182802A86014593F6150091C232955E
:1000C00085810606F5F9828000000000634E050276
:1000D00063C305042E86AA857D5515C285466378BF
:1000E000B6006356C00006068606E36CB6FE014500
:1000F00063E4C500918D558D85820582F5FA828075
:100100008682C93F2E8582823305A04063D70500D1
:10011000B305B040C1B7B305B0408682653F330533
:10012000A0408282868263C70500634905005D376F
:100130002E858282B305B040E35B05FE3305A04007
:10014000513F3305B040828200003D432A876373EC
:10015000C3029377F700BDEFADE5937606FF3D8AC6
:10016000BA960CC34CC30CC74CC74107E36BD7FE10
:1001700011E28280B306C3408A0697020000969679
:100180006780A6002307B700A306B7002306B700C1
:10019000A305B7002305B700A304B7002304B700E5
:1001A000A303B7002303B700A302B7002302B700DD
:1001B000A301B7002301B700A300B7002300B700D5
:1001C000828093F5F50F93968500D58D9396050162
:1001D000D58D61B793962700970200009696868288
:1001E000E78086FA9680C1171D8F3E96E374C3F8A8
:1001F000A5B701A0B707EFBE37E700E09387070870
:100200003CC701A0EFF2DFE95D71614681456800FE
:100210002D3F1306C0028145481002C002C202C42D
:100220002D37854513055023EF00B0498545054519
:10023000EF005047A14741447C808A858D473715A0
:1002400001403EC222C4EF00302B37150140194750
:100250008A8513050580788002C4EF00F0298A851D
:10026000371501406080EF003029372401400547F1
:100270008D473AC86C0037070E00130504403ACC8E
:100280002300F10202C602CA02CEEF0050019D46D1
:100290000546894513050440EF00300B9D4609468D
:1002A000854513050440EF00500A9D460D468145E3
:1002B00013050440EF007009B70402401385840061
:1002C000EF0050148D473ED8930700083EDC93079B
:1002D00000101307C4443EDE930700403AD2BEC06C
:1002E00037070020930700021307C7031385840014
:1002F000BEC24C1089673AD4BEC402D602DA82C6A6
:10030000EF007019138584008545EF00501C85456A
:1003100013050440EF00807E854513050440EF007F
:10032000E07C13050440EF00807E930404402685A2
:10033000EF00807E6DFD1305044037240140EF007F
:10034000207E130404402285EF00207E6DFD616154
:10035000A9BBEFF2FFD431118545054502C402C6A1
:100360002318010002C002C2EF009037BD473EC40F
:10037000BD679387F7A52C00370500403EC6EF0008
:100380001038854537050040EF00B04913070004D9
:10039000B7E700E023A2E72805468545370500407A
:1003A000EF005044930760127C8089475C810A8586
:1003B00085473EC2EF00B01D13052003EF003063F8
:1003C000854537050040EF00103F5101F9B9EFF2C4
:1003D0003FCDAA840565130141FD2E8413050582D6
:1003E000854532C002C802CA02CC02C202C423162A
:1003F000010002CE02D002D202D4EF00902C91472D
:10040000FC8037150140E1473ECC0C088D471305B1
:1004100005403ECAEF00500E6082373401404C0068
:10042000130504C064842315010023130100EF00A9
:10043000102D0246C167938707066C08130504C098
:100440003ECE2311C10223120102EF00303013050A
:1004500004C0A145EF00D03B130504C08545EF0063
:100460009039130504C08545EF00703685451305A6
:1004700004C0EF0050341301C10205B9EFF25FC2AE
:10048000AA8537350140130505C0EF00503931B951
:10049000EFF21FC19307F5FF93F7F70F214763783A
:1004A000F7029307A00563E6A70293175500898F0B
:1004B0008A073E95930540060E0509399307803E4D
:1004C0006314F5001305703E42054181F9BE0145F4
:1004D000E9BF13054006D1BFEFF29FBC11651301C0
:1004E000C1FD85451305150202C402C602C802CA31
:1004F00002CC02CE02D002C002C2EF00901C371420
:100500000140930700047C848D44E1472C001305CF
:10051000044026C63EC8EF00207E930700027C847C
:100520002C0091471305044026C63EC8EF00C07C4E
:10053000F16737440140938707203ECA4C08B7074C
:100540000C00130504803ECE02CC23100102EF0004
:10055000503005469305505213050480EF00903D3E
:10056000930700127C800A8585473EC22301010063
:10057000EF00F001854513050480EF00503A1301A8
:10058000410225B6711122C03744014093055052F3
:1005900013050480EF00703D19C5930550521305F3
:1005A0000480EF00504002441101730020307111AB
:1005B00085453705004022C0EF00702759C9938751
:1005C000C182943305469385C1826361D604B82302
:1005D000B0B305071377F70FB8A36379E602238159
:1005E00007008DE6B706002093869603982205073C
:1005F0001377F70F98A2A54663FAE60090A3014689
:10060000A14537150140EF0080773DA89821854727
:10061000E307F7FE37040020130484031C202D4752
:10062000850793F7F70F1CA06370F702A1453715F4
:100630000140EF00207413361500A1453715014025
:10064000EF00E07323000400854537050040EF000C
:10065000901F0244110173002030EFF27FA41E2589
:1006600099E385471EA502257E211305C0F9637B0A
:10067000F40889653385874093850571253CA285FB
:10068000913CB7470F001307C5F99387C71D2A840C
:100690001305C0F963E8E70679751305058FA945C9
:1006A00022952D341307351F9307603E63F1E7024F
:1006B000A9452285213C130785C193175700998FBF
:1006C0008A07BA979305853E139547000134056460
:1006D0009305349EC5329305803ECD3A9305A4D14F
:1006E000AA951305C0F999CD37E5F5051305051051
:1006F000F13AE5779387D754930540063E95F93252
:10070000420541855DB2EFF2BF990545B52D8D2CAF
:10071000EF00B02AC53C3539C13301469305F002DC
:100720001305703E6D31B704002023A601821384A7
:10073000C1821C300547D1C7E39FE7FE3830E31A7A
:10074000F7FE3820A301040063010714E313F7FE4A
:100750001387C4036A239305F03FAD3A931725002E
:100760003E954205B70700201387C70341814AA77A
:1007700013072002637BA7081385C403F93D4205D4
:10078000B707002041819387C703EAA71307000535
:10079000636DA7069386C403138627011387C403DA
:1007A0004E2B09070EABE31DC7FE23990700014539
:1007B000D107BA2A89063A9542054181E39BF6FEA4
:1007C0007DA81C2005476394E7001CB09DB73C3012
:1007D000E391E7F63820A301040015CBE31BF7F4FF
:1007E0001387C4036A239305F03FEFF0BF8E93177E
:1007F00025003E954205B70700201387C7034181B6
:100800004AA7130720026368A70289477DBF3725DF
:100810000140854513050540292E0945D92175DD7F
:100820000945F9219387C4039A23FAA3BA239AA707
:10083000DA23BAA7FDBD1385C40305354205B70702
:10084000002041819387C703EAA713070005E36EE1
:10085000A7FA9386C403138627011387C4034E2B7C
:1008600009070EABE31DE6FE239907000145D107FA
:10087000BA2A89063A9542054181E39BD7FE058154
:100880001375F50F3131DD3E6DB5372501408545D6
:1008900013050540792C0945A92175DD51B7EFF203
:1008A0003F80371402401C403707FFF8414593E76B
:1008B00017001CC05C40F98F5CC01C403707F7FE76
:1008C0007D17F98F1CC01C403707FCFF7D17F98F7F
:1008D0001CC05C4041777D17F98F5CC0B7079F0053
:1008E0001CC439231C4C93E707021CCCB7170140EA
:1008F00003A70740938607401377F7F023A0E7404C
:1009000003A707401367070823A0E74089479CCA4D
:10091000B7F7FF1F03C5477D9307F00F6304F5008A
:100920007D89F921B72702409843C176FD16719B56
:1009300098C398431367170098C3B7170240D8436A
:10094000D8C3D843758FD8C3D843B7060001D8C3DE
:100950009843558F98C3984393166700E3DD06FECE
:10096000D843B7160240719BD8C3D84313672700FA
:10097000D8C32147DC42B18BE39EE7FE6FF0EFF274
:10098000EFF20FF2371702405C4337040020914624
:10099000B18B130404016385D700A1466382D70499
:1009A000B7376E01938707601CC0B7160240DC4260
:1009B0000840918313F7F700B707002093870700DB
:1009C000BA978C23DC4293F5F50F93F7070833575A
:1009D000B50081E7EFF00FF02A8718C06FF0EFEC59
:1009E0005C43B777DC02938707C07DBF01A0970106
:1009F00000209381A1E4138181FC1305000A97F57F
:100A0000FF1F9385256017F6FF1F1306A65F63FA85
:100A1000C5008322050023A0550011059105E3EAD6
:100A2000C5FE171500001305658097F5FF1F938518
:100A3000655D17F6FF1F1306666063FAC500832223
:100A4000050023A0550011059105E3EAC5FE17F541
:100A5000FF1F1305A55E9385C1836377B50023202F
:100A600005001105E36DB5FEB722000093820288F0
:100A7000739002308D427390428097F2FFFF938211
:100A8000625893E2320073905230EFF05FE19702C8
:100A90000000938282C773901234730020305C414F
:100AA0003707F1FF1307F7EF7D8FDC419441A20771
:100AB000D58FD98F5CC11C4537F7F1FF1307D77F5E
:100AC000D4457D8F9C49D58F94458606D58FD98F87
:100AD0001CC55C55370710FF7D177D8FDC29FD177E
:100AE00093F7F70FD207D98F5CD582801C4589C553
:100AF00093E717001CC58280F99BEDBF1C4589C593
:100B000093E707101CC5828093F7F7EFE5BF1C45FC
:100B100093E787001CC5828008450D810589828086
:100B20001C4593E747001CC582800845098105895B
:100B300082801C4591C537075000D98F1CC5828023
:100B40003707B0FF7D17F98FD5BFA54763F8B70406
:100B5000138765FF931717008322C500BA971D43BB
:100B60003313F3001343F3FF33735300B397F600CB
:100B7000B3E767005CC5994763E3C7047D16931725
:100B800026003E965859FD47B397C70093C7F7FF15
:100B9000F98FB395C500DD8D4CD9828093971500F0
:100BA00003230501AE971D473317F7001347F7FFDF
:100BB00033776700B397F6005D8F18C96DBFB147F3
:100BC00063E2C7026516931726003E961859FD4743
:100BD000B397C70093C7F7FFF98FB395C500DD8DB5
:100BE0000CD982804D161317260054553A96FD47AE
:100BF000B397C70093C7F7FFF58FB395C500DD8D99
:100C00004CD582801C4141677917F98F1CC1232084
:100C100005002322050023240500B70702402326F0
:100C20000500138787006317E500D8431367F700B3
:100C3000D8C382801387C7016316E500D8431367C2
:100C4000070FFDB7138707036318E500D8438566D0
:100C5000938606F0558FE9BF138747046315E500B7
:100C6000D843BD66C5BF138787056316E500D84323
:100C7000B7060F00C5B71387C7066316E500D8434C
:100C8000B706F000C1BF13870708E314E5FAD8439D
:100C9000B706000FC1B71841E177BD0794517D8FAA
:100CA0009C45D58F9449D58FD449D58F944DD58FF8
:100CB000D44DD58FD451D58F9455D58FD98F1CC194
:100CC000DC455CC19C411CC5DC415CC582801C418B
:100CD00089C593E717001CC1828041677917F98F96
:100CE000DDBFB70702409C437D8D3335A000828075
:100CF000B7070240C8C38280944593F7060193F278
:100D0000F60081C7DC41B3E2F20083D3050093F71C
:100D1000F30FA5C303230500611122C226C081473A
:100D2000130480029304800405473316F70033F759
:100D3000C3006312E602939527003D473317B700BF
:100D40001347F7FF33736700B395B20033E36500D1
:100D5000639D860050C985072147E397E7FC12444D
:100D600023206500824421018280E39696FE10C90B
:100D7000DDB7828048456D8D3335A000828019C271
:100D80000CC982804CC9828023AAA182828083A65A
:100D90004183854718216390F6021C31639CD7027A
:100DA0003C219A0793E707F8B7E600E093F7F70FBF
:100DB000BA962380F6408546935757003397E6004E
:100DC000544189CE938707048A07B7E600E0B697B7
:100DD00098C38280EDF33C219A07F9B79387070601
:100DE000B7E600E08A07B69798C30F10000082802C
:100DF000371702401C430E0593F777F05D8D08C34B
:100E00008280EFF2EFA9371702405C4391462A84B3
:100E1000B18B6385D700A1466380D708B7376E01D1
:100E2000938707601CC0B7160240DC42918313F71A
:100E3000F700B707002093878702BA978C23DC421C
:100E4000184093F5F50F93F707083355B70081E77E
:100E50003A85EFF02FA848C008C448C4B71702402D
:100E6000DC438D46AD83FD8B13D737008A07F18BAA
:100E7000D98F13F6370113F7370063F4C6001387D1
:100E800047FFB707002093874701BA978C23EFF0FD
:100E90006FA408C86FF06FA15C43B777DC0293873B
:100EA00007C049B799C5371702405C4B5D8D48CBE9
:100EB0008280B7170240D84B1345F5FF798DC8CB18
:100EC000828099C5371702401C4F5D8D08CF828004
:100ED000B7170240984F1345F5FF798D88CF828070
:100EE00099C5371702405C4F5D8D48CF8280B71798
:100EF0000240D84F1345F5FF798DC8CF82801E215F
:100F000037370140130707C0C207C1836306E500F6
:100F1000370700406316E500BA2193F7F7F8D98F39
:100F2000FA2193F7F7CFC207C183D98F1EA1DE2123
:100F30005EB59E211EB5B7370140938707C0631485
:100F4000F5009C251EB985475EA982801E3192213D
:100F500003D32500C207C183F99BC207C1831EB119
:100F60001E3156211A2DC207C183420741831377D0
:100F7000C7F8518F9225F59BC20633666600D18F64
:100F800037360140130606C0C1826310C502B22580
:100F9000DD9B03D3E500D18FD221ED9B93F6F6CFF5
:100FA000D18FD22533666600D18E56A11AADFA21B3
:100FB00058D91EB182801E2189C593E717001EA152
:100FC0008280C207C183F99BC207C183CDBF83570B
:100FD000450491C52167D98F2312F5048280C60785
:100FE000C583DDBF5E2501C6DD8D4EA5828093C51C
:100FF000F5FFFD8DDDBF1E2189C593E707081EA102
:101000008280C207C18393F7F7F7C207C183C5BFC8
:101010001E2DC207C183DD9BDD8D0EAD82804CD9B4
:10102000828093C5F5FFC205C1810EA982801E2969
:101030004A25ED8F4205418189C76D8D3335A0006A
:1010400082800145828093C5F5FFC205C1810EA94A
:101050008280EFF2EF841629F577FD17F58FF621E0
:10106000DA252111D58F1EA95625FD779387379F45
:10107000F58FD6212A842EC0D58F9625D58FB625FB
:10108000D58F5EA55E29C207C18393F7F7CF5D8F29
:101090005AA94800BD33B74701409387078082456E
:1010A0006312F406C2475A24139517003E9542076F
:1010B0000E0541873E958C41635807048605EFF085
:1010C0006F81930540062AC0EFF0CF8082479314CA
:1010D0004500930540063E85EFF08F825E24C207EF
:1010E000C18763D507020E05930540061305250346
:1010F000EFE05FFE1D89C98CC204C18006A46101B6
:101100006FE0BFFAB24745B78A0555BF1205930590
:10111000400613052503EFE0FFFB3D89E9BF91C5BC
:101120005E250967D98F5EA582805A25F977FD175C
:10113000F98FD5BF13F7F50F85471583B395B70022
:101140006319F7009307C500984301CED98D8CC36E
:101150008280894693074501E318D7FE930705016E
:10116000E5B793C5F5FFF98DDDB713F7F50F8546A4
:101170001583B397B6006311D7025A25F98F1A2148
:1011800001454207418381CB0545A181B315B500D7
:101190006D8F3335E000828089466314D7001A29A9
:1011A000F1BF5A29E1BFA1818547B397B70093C723
:1011B000F7FFC207C1831EA18280EFE27FEEB7076F
:1011C000002003A50701B7157A0093850520EFE0FD
:1011D0007FF01375F50F238DA18293175500898F2A
:1011E0008A073E950E05239CA1826FE01FECEFE27B
:1011F0003FEB37F400E05C40AA85F99B5CC003D567
:101200008183EFE03FEB08C8232404001C4093E7F0
:1012100017001CC0B7F700E0D843058B75DF984373
:08122000799B98C36FE07FE8A1
:10122800010203040506070801020304050607086E
:10123800006CDC020204060804080C1008101820D0
:101248001020304020406080010203040506070892
:0812580001020304050607086A
:00000001FF
